:10FC000003430343034332C232D0F0003140800249
:10FC1000B240805A2001C24302003A40DA103B4011
:10FC20001A02B0120AFD1542FC10051235F0000F41
:10FC30003590000D35410620C24556008510C2455D
:10FC40005700023CB012FEFD3A40F2FD3B402C0250
:10FC50003C400C00B0120EFD0C431F4C76FC1E4CB9
:10FC600002FD3F9000FC0B243D4F3DFF2DFF3D93D7
:10FC700006242C53F23F00E000F000F800FCB240F4
:10FC800040A52C01B24055A52A013A400010B240CF
:10FC900002A52801CA4300003A5040003A90FF10E4
:10FCA000F62BB24040A528013A401A023B40DA1038
:10FCB000B0120AFD824E72FD8F10C24F2DFD3A40E8
:10FCC0001AFD3B4000103C40D800B0120EFDB2407F
:10FCD00002A52801C24300FEB24040A52801B2405F
:10FCE0000010FEFFB24000A52801B24050A52C0133
:10FCF00003430343034303430343034332C232D06A
:10FD0000F000D000AD008A0068003C402600FB4AAD
:10FD100000001B531C83FB233041E2C32100E2D3CC
:10FD20002700E2B32000C24327003F4000FF01202C
:10FD3000004F31408002B24000A52C01B240805AF1
:10FD40002001D242FE105600D242FF105700E2D3EB
:10FD50002600E2D22100E2D22200B24000896201F4
:10FD6000B2D024026001B012A0103690BA00032471
:10FD70003940FF0F1B3CB24004A52801CF430000CF
:10FD8000B24040A52801B2400010FEFF084F0743D3
:10FD9000B012A0103890FEFF0424C846000077E897
:10FDA000F73F39408A00479601240911E2C2210039
:10FDB0001983FE23E2D22100D63F3540EC1092B3E6
:10FDC0006201FD27B2506800720192C36201794559
:10FDD0000059B2C001016201B25034007201EF3F1C
:10FDE000B2B0000462014610EA3FB2D000016201E5
:10FDF0003041000E0E0E0E0E0E0E0E1801081542AA
:10FE0000FE1035C000F0355000B0C24556008510D8
:10FE1000C2455700F24020005300B2402402600166
:10FE2000B240109962013940400004430D43324012
:10FE30001800304104930420154272010449001354
:10FE400014830B243DB000800720B2900080720123
:10FE5000032809840443013C00133DB00080642062
:10FE60001642720106853DD00080F240BD00570069
:10FE7000F240060058003A400C003B40FF00F240C0
:10FE800020005600A2D2600100133D900080132094
:10FE9000D24256003C02D24257003D02F2C030002E
:10FEA0003D021D538246400212C306101652400204
:10FEB000D2535700E03F3D9001801520D2425600BA
:10FEC0003A02D24257003B02F2C030003B021D53BF
:10FED00016424002F2C010005700C2435600D253EF
:10FEE00057000343C83FD24256003802D24257005F
:10FEF0003902F2C030003902D28357000343D28363
:10FF000057000343D2423C025600D2423D02570002
:10FF10008243620182436001C2435800C2435300DE
:10FF2000B1C0100000000013174272010785069748
:10FF3000AC27069705283E40FF0008460887033C8B
:10FF40000E43084708863C400C008C98BAFF0228F4
:10FF50002C83FB230B9E2120554256000E93132425
:10FF60007590F0000320D2535700853F555CC8FFC1
:10FF7000032C7590F10002287540F000C245560030
:10FF80000B4E0A4C7F3F45930320D2835700733FAB
:10FF9000558CC8FFF32F4543F13F0C9307200A937C
:10FFA00005200E937227925356006F3F0A93012447
:10FFB0002A830A9CD12F0C4ACF3F00000001000287
:10FFC00000040008001000200100020004000800E6
:06FFD000100020004000BB
:02FFF20034FEDB
:02FFFE000CFCF9
:00000001FF
