:10104000B012A4103690BA003940FF0F1C20B240F5
:1010500004A52801CF430000B24040A52801824FDB
:10106000FEFF3B400002B0129410B012A410389062
:10107000FEFF0424C846000077E8F73F39408A00A5
:10108000479601240911E2C221001983FE23E2D20E
:101090002100D63F3D406000FC4B00001C531D83E7
:0410A000FB233041BD
:10FC0000C2432100E2D32700E2B32000C243270011
:10FC1000272431408002B24000A52C01B240805A16
:10FC20002001D242FE105600D242FF105700E2D30C
:10FC30002600E2D22100E2D22200B2400089620115
:10FC4000B2D024026001384060FF07433F4000FF0C
:10FC50000B4F3C400002B01294100C4F304040104B
:10FC600032C232D0F00031408002B240805A2001CE
:10FC7000C24302003A40DC103B401C02B01284FD3B
:10FC80001542FC10051235F0000F3590000D35417E
:10FC90000620C24556008510C2455700023CB012EE
:10FCA000D8FD0C431F4C74FD0B4F1E4C7CFD3F9048
:10FCB00000FC07243D4F3DFF2DFF3D9302242C53B4
:10FCC000F13FB24040A52C01B24055A52A01B240F7
:10FCD00002A52801C243C010B24040A52801824EAF
:10FCE0004A108F10C24F4FFCC24F49FC0F4B3A4095
:10FCF00000FC0B4F3C4066003B9000FC0224B0121D
:10FD000088FD3A4094FD3B40A4103C403800B012BE
:10FD100088FD3A40CCFD3B402C023C400C00B01228
:10FD200088FD3A401C023B40DC10B01284FDB2401A
:10FD300000A52801B24050A52C01B24000A52C011D
:10FD4000B24002A52801C24300FEB24040A52801EE
:10FD5000824FFEFFB24000A52801B24010A52C0141
:10FD600003430343034303430343034332C232D0F9
:10FD7000F000FF3F00E000F000F800FC1501F30088
:10FD8000380123003C402400FB4A00001B531C8325
:10FD9000FB2330413540EC1092B36201FD27B25095
:10FDA0006800720192C3620179450059B2C0010135
:10FDB0006201B25034007201EF3FB2B00004620140
:10FDC0004610EA3FB2D0000162013041000E0E0E33
:10FDD0000E0E0E0E0E1801081542FE1035C000F072
:10FDE000355000B0C24556008510C2455700F2405C
:10FDF00020005300B24024026001B2401099620119
:10FE00003940400004430D43324018003041049310
:10FE10000420154272010449001314830B243DB0E1
:10FE200000800720B29000807201032809840443F7
:10FE3000013C00133DB0008064201642720106852B
:10FE40003DD00080F240BD005700F240060058004F
:10FE50003A400C003B40FF00F24020005600A2D286
:10FE6000600100133D9000801320D24256003C02F6
:10FE7000D24257003D02F2C030003D021D5382467F
:10FE8000400212C3061016524002D2535700E03F00
:10FE90003D9001801520D24256003A02D2425700CE
:10FEA0003B02F2C030003B021D5316424002F2C03A
:10FEB00010005700C2435600D25357000343C83FB7
:10FEC000D24256003802D24257003902F2C0300006
:10FED0003902D28357000343D28357000343D242EF
:10FEE0003C025600D2423D025700824362018243E7
:10FEF0006001C2435800C2435300B1C0100000006B
:10FF000000131742720107850697AC27069705284C
:10FF10003E40FF0008460887033C0E43084708861A
:10FF20003C400C008C9894FF02282C83FB230B9EF2
:10FF30002120554256000E9313247590F0000320A3
:10FF4000D2535700853F555CA2FF032C7590F100FA
:10FF500002287540F000C24556000B4E0A4C7F3F08
:10FF600045930320D2835700733F558CA2FFF32F94
:10FF70004543F13F0C9307200A9305200E93722707
:10FF8000925356006F3F0A9301242A830A9CD12F73
:10FF90000C4ACF3F000000010002000400080010DE
:10FFA00000200100020004000800100020004000B2
:02FFF2000EFE01
:02FFFE0066FC9F
:00000001FF
