:10F80000C2432100E2D32700E2B32000C243270015
:10F810001F2431408002B24000A52C01B240805A22
:10F820002001D242FE105600D242FF105700E2D310
:10F830002600E2D22100E2D22200B2400089620119
:10F84000B2D024026001384050F8074330404010E5
:06F8500032C232D0F000CC
:10F9000031408002B240805A2001C243020092423C
:10F91000F81038029242FA103A029242FC103C026D
:10F920009242FE103E021542FC10051235F0000F07
:10F930003590000D3541063CC24556008510C24544
:10F940005700023CB012E8F9B24040A52C01B24089
:10F9500055A52A013A404010B24002A52801CA43E9
:10F9600000003A5040003A90FF10F62BB24040A5FC
:10F9700028013A4000FC3B4040103C40B800FB4AA4
:10F9800000001B531C83FB2392423802F810924262
:10F990003A02FA1092423C02FC1092423E02FE10E1
:10F9A000B24000A52801B24050A52C01B24000A5EC
:10F9B0002C01B24002A52801C24300FEB24040A57E
:10F9C0002801B24000F8FEFFB24000A52801B24075
:10F9D00010A52C01034303430343034303430343A1
:10F9E00032C232D0F000FF3F1542FE1035C000F0A9
:10F9F000355000B0C24556008510C2455700F24050
:10FA000020005300B24024026001B240109962010C
:10FA10003940400004430D43324018003041049304
:10FA20000420154272010449001314830B243DB0D5
:10FA300000800720B29000807201032809840443EB
:10FA4000013C00133DB0008064201642720106851F
:10FA50003DD00080F240BD005700F2400600580043
:10FA60003A400C003B40FF00F24020005600A2D27A
:10FA7000600100133D9000801320D24256003C02EA
:10FA8000D24257003D02F2C030003D021D53824673
:10FA9000400212C3061016524002D2535700E03FF4
:10FAA0003D9001801520D24256003A02D2425700C2
:10FAB0003B02F2C030003B021D5316424002F2C02E
:10FAC00010005700C2435600D25357000343C83FAB
:10FAD000D24256003802D24257003902F2C03000FA
:10FAE0003902D28357000343D28357000343D242E3
:10FAF0003C025600D2423D025700824362018243DB
:10FB00006001C2435800C2435300B1C0100000005E
:10FB100000131742720107850697AC270697052840
:10FB20003E40FF0008460887033C0E43084708860E
:10FB30003C400C008C98A4FB02282C83FB230B9EDA
:10FB40002120554256000E9313247590F000032097
:10FB5000D2535700853F555CB2FB032C7590F100E2
:10FB600002287540F000C24556000B4E0A4C7F3FFC
:10FB700045930320D2835700733F558CB2FBF32F7C
:10FB80004543F13F0C9307200A9305200E937227FB
:10FB9000925356006F3F0A9301242A830A9CD12F67
:10FBA0000C4ACF3F000000010002000400080010D2
:10FBB00000200100020004000800100020004000A6
:10FC0000B012B4103690BA0024203B4000F80F4BDD
:10FC10003C400002B012A410924204A52801C24345
:10FC200000F8B24040A52801B24000F8FEFF3B407A
:10FC300000020C4FB012A410B012B4103890FEFFA6
:10FC40000424C846000077E8F73F39408A00479609
:10FC5000022439404500E2C221001983FE23E2D28A
:10FC60002100CE3F3D405000FC4B00001C531D8343
:10FC7000FB2330413540EC1092B36201FD27B250B6
:10FC80006800720192C3620179450059B2C0010156
:10FC90006201B25034007201EF3FB2B00004620161
:10FCA0004610EA3FB2D0000162013041000E0E0E54
:06FCB0000E0E0E0E0E18F0
:02FFF2001EFAF5
:02FFFE0000F908
:00000001FF
