:06C0000032C232D0F00054
:10C1000031408002B240805A2001C2430200D24234
:10C11000FC105600D242FD1057007A433B4000020B
:10C120003C404000CB4A00001B531C83FB233A4099
:10C13000DA103B401A023C401200B012DAC13A4019
:10C14000F6103B4036023C400A00B012DAC13A40D9
:10C1500000D03B4000023C401A00B012DAC13A4025
:10C160002CD03B402C023C400A00B012DAC1B24055
:10C1700040A52C01B24055A52A01B24002A52801D4
:10C18000C243C010B24040A528013A4000023B40E3
:10C19000C0103C404000B012DAC1B24000A52801F6
:10C1A000B24050A52C01B24000A52C01B24002A51E
:10C1B0002801C24300FEB24040A52801B240C01091
:10C1C000FEFF8243DEFFB24000A52801B24010A569
:10C1D0002C0132C232D0F000FF3FFB4A00001B535B
:06C1E0001C83FB2330412B
:10D00000C2432100F24020002700F2B0200020009F
:0AD01000C24327000B20304000C08F
:0AD02C001042000CFFFFFFFFFFFFA2
:02FFDE00000021
:02FFFE0000C140
:00000001FF
