:10FC00000343034332C232D0F00031408002B2409D
:10FC1000805A2001C2430200D242FC105600D24258
:10FC2000FD1057007A433B4000023C404000CB4A65
:10FC300000001B531C83FB233A40DA103B401A029E
:10FC40003C401200B012F2FC3A40F6103B40360243
:10FC50003C400A00B012F2FC3A40C0FD3B400002BA
:10FC60003C401A00B012F2FC3A40ECFD3B402C0242
:10FC70003C400A00B012F2FC5D42F00F7DF007003C
:10FC8000D24DFEFC1902B24040A52C01B24055A550
:10FC90002A01B24002A52801C243C010B24040A5CB
:10FCA00028013A4000023B40C0103C404000B012E6
:10FCB000F2FCB24000A52801B24050A52C01B24090
:10FCC00000A52C01B24002A52801C24300FEB240AB
:10FCD00040A52801B240C010FEFF8243DEFFB240C3
:10FCE00000A52801B24010A52C0132C232D0F0008C
:10FCF000FF3FFB4A00001B531C83FB233041FEFCEB
:04FD0000F8F0E0C077
:10FDC000C2432100F24020002700F2B020002000B2
:0AFDD000C24327000B20304000C0A2
:0AFDEC001042000CFFFFFFFFFFFFB5
:02FFDE00000021
:02FFFE000AFCFB
:00000001FF
